{
  "contractName": "Casino",
  "abi": [
    {
      "inputs": [],
      "payable": false,
      "stateMutability": "nonpayable",
      "type": "constructor"
    },
    {
      "anonymous": false,
      "inputs": [
        {
          "indexed": false,
          "internalType": "address payable",
          "name": "winner",
          "type": "address"
        },
        {
          "indexed": false,
          "internalType": "uint256",
          "name": "payout",
          "type": "uint256"
        }
      ],
      "name": "Payout",
      "type": "event"
    },
    {
      "anonymous": false,
      "inputs": [
        {
          "indexed": true,
          "internalType": "address payable",
          "name": "player",
          "type": "address"
        },
        {
          "indexed": false,
          "internalType": "uint256",
          "name": "betSize",
          "type": "uint256"
        },
        {
          "indexed": false,
          "internalType": "uint8",
          "name": "betNumber",
          "type": "uint8"
        },
        {
          "indexed": false,
          "internalType": "uint8",
          "name": "winningNumber",
          "type": "uint8"
        }
      ],
      "name": "Play",
      "type": "event"
    },
    {
      "constant": false,
      "inputs": [],
      "name": "kill",
      "outputs": [],
      "payable": false,
      "stateMutability": "nonpayable",
      "type": "function"
    },
    {
      "constant": true,
      "inputs": [],
      "name": "name",
      "outputs": [
        {
          "internalType": "string",
          "name": "",
          "type": "string"
        }
      ],
      "payable": false,
      "stateMutability": "view",
      "type": "function"
    },
    {
      "constant": true,
      "inputs": [],
      "name": "owner",
      "outputs": [
        {
          "internalType": "address payable",
          "name": "",
          "type": "address"
        }
      ],
      "payable": false,
      "stateMutability": "view",
      "type": "function"
    },
    {
      "constant": false,
      "inputs": [],
      "name": "fund",
      "outputs": [],
      "payable": true,
      "stateMutability": "payable",
      "type": "function"
    },
    {
      "constant": false,
      "inputs": [
        {
          "internalType": "uint8",
          "name": "number",
          "type": "uint8"
        }
      ],
      "name": "bet",
      "outputs": [],
      "payable": true,
      "stateMutability": "payable",
      "type": "function"
    },
    {
      "constant": true,
      "inputs": [],
      "name": "getMaxBet",
      "outputs": [
        {
          "internalType": "uint256",
          "name": "",
          "type": "uint256"
        }
      ],
      "payable": false,
      "stateMutability": "view",
      "type": "function"
    }
  ],
  "bytecode": "0x608060405234801561001057600080fd5b50336000806101000a81548173ffffffffffffffffffffffffffffffffffffffff021916908373ffffffffffffffffffffffffffffffffffffffff1602179055506040518060400160405280601181526020017f4e61696a61207765623320436173696e6f0000000000000000000000000000008152506001908051906020019061009c9291906100a2565b50610147565b828054600181600116156101000203166002900490600052602060002090601f016020900481019282601f106100e357805160ff1916838001178555610111565b82800160010185558215610111579182015b828111156101105782518255916020019190600101906100f5565b5b50905061011e9190610122565b5090565b61014491905b80821115610140576000816000905550600101610128565b5090565b90565b610637806101566000396000f3fe6080604052600436106100555760003560e01c806306fdde031461005a57806341c0e1b5146100ea578063646668b6146101015780638da5cb5b1461012c578063b60d428814610183578063d0821b0e1461018d575b600080fd5b34801561006657600080fd5b5061006f6101be565b6040518080602001828103825283818151815260200191508051906020019080838360005b838110156100af578082015181840152602081019050610094565b50505050905090810190601f1680156100dc5780820380516001836020036101000a031916815260200191505b509250505060405180910390f35b3480156100f657600080fd5b506100ff61025c565b005b34801561010d57600080fd5b50610116610358565b6040518082815260200191505060405180910390f35b34801561013857600080fd5b5061014161036a565b604051808273ffffffffffffffffffffffffffffffffffffffff1673ffffffffffffffffffffffffffffffffffffffff16815260200191505060405180910390f35b61018b61038f565b005b6101bc600480360360208110156101a357600080fd5b81019080803560ff169060200190929190505050610391565b005b60018054600181600116156101000203166002900480601f0160208091040260200160405190810160405280929190818152602001828054600181600116156101000203166002900480156102545780601f1061022957610100808354040283529160200191610254565b820191906000526020600020905b81548152906001019060200180831161023757829003601f168201915b505050505081565b6000809054906101000a900473ffffffffffffffffffffffffffffffffffffffff1673ffffffffffffffffffffffffffffffffffffffff163373ffffffffffffffffffffffffffffffffffffffff161461031e576040517f08c379a000000000000000000000000000000000000000000000000000000000815260040180806020018281038252601f8152602001807f4f6e6c7920436f6e7472616374206f776e65722063616e206b696c6c206d650081525060200191505060405180910390fd5b6000809054906101000a900473ffffffffffffffffffffffffffffffffffffffff1673ffffffffffffffffffffffffffffffffffffffff16ff5b60006064478161036457fe5b04905090565b6000809054906101000a900473ffffffffffffffffffffffffffffffffffffffff1681565b565b610399610358565b3411156103f1576040517f08c379a00000000000000000000000000000000000000000000000000000000081526004018080602001828103825260268152602001806105dd6026913960400191505060405180910390fd5b60003411610467576040517f08c379a00000000000000000000000000000000000000000000000000000000081526004018080602001828103825260168152602001807f41206265742073686f756c6420626520706c616365640000000000000000000081525060200191505060405180910390fd5b60006104716104fd565b90503373ffffffffffffffffffffffffffffffffffffffff167f8d452175756441ce5a1392551bff6087cffc5fe41a0b0beb519c6194aab7cd85348484604051808481526020018360ff1660ff1681526020018260ff1660ff168152602001935050505060405180910390a28060ff168260ff1614156104f9576104f833600a3402610512565b5b5050565b60006001600a438161050b57fe5b0601905090565b6000811161051c57fe5b4781111561052657fe5b8173ffffffffffffffffffffffffffffffffffffffff166108fc829081150290604051600060405180830381858888f1935050505015801561056c573d6000803e3d6000fd5b507f5afeca38b2064c23a692c4cf353015d80ab3ecc417b4f893f372690c11fbd9a68282604051808373ffffffffffffffffffffffffffffffffffffffff1673ffffffffffffffffffffffffffffffffffffffff1681526020018281526020019250505060405180910390a1505056fe42657420616d6f756e742063616e206e6f7420657863656564206d6178206265742073697a65a265627a7a723158200ac3a527a131fc03792bb283bde46890e3e2c10d30c23a4685949b083d3429de64736f6c63430005100032",
  "source": "// SPDX-License-Identifier: MIT\npragma solidity >=0.4.22 <0.9.0;\n\nimport \"./Killable.sol\";\n\ncontract Casino is Killable{\n  string public name;\n\n  event Play(address payable indexed player, uint256 betSize, uint8 betNumber, uint8 winningNumber);\n  event Payout(address payable winner, uint256 payout);\n\n  constructor() public{\n    name = \"Naija web3 Casino\";\n  }\n\n  function fund() external payable {}\n\n  function bet(uint8 number) external payable {\n    require(msg.value <= getMaxBet(), \"Bet amount can not exceed max bet size\");\n    require(msg.value > 0, \"A bet should be placed\");\n\n    uint8 winningNumber = generateWinningNumber();\n    emit Play(msg.sender, msg.value, number, winningNumber);\n\n    if (number == winningNumber) {\n        payout(msg.sender, msg.value * 10);\n    }\n  }\n\n  function getMaxBet() public view returns (uint256) {\n    return address(this).balance / 100;\n  }\n\n  function generateWinningNumber() internal view returns (uint8) {\n    return uint8(block.number % 10 + 1); // Don't do this in production\n  }\n\n  function payout(address payable winner, uint256 amount) internal {\n    assert(amount > 0);\n    assert(amount <= address(this).balance);\n\n    winner.transfer(amount);\n    emit Payout(winner, amount);\n  }\n}\n",
  "sourcePath": "C:/Users/HP/Desktop/blockdev/smart_contracts/casino/contracts/Casino.sol",
  "compiler": {
    "name": "solc",
    "version": "0.5.16+commit.9c3226ce.Emscripten.clang"
  },
  "schemaVersion": "3.4.1",
  "updatedAt": "2022-03-27T00:39:12.617Z",
  "devdoc": {
    "methods": {}
  },
  "userdoc": {
    "methods": {}
  }
}